{
	"_format": "hh-sol-artifact-1",
	"contractName": "SkyHi",
	"sourceName": "contracts/NFT.sol",
	"abi": [
		{
			"inputs": [],
			"stateMutability": "nonpayable",
			"type": "constructor"
		},
		{
			"inputs": [],
			"name": "ApprovalCallerNotOwnerNorApproved",
			"type": "error"
		},
		{
			"inputs": [],
			"name": "ApprovalQueryForNonexistentToken",
			"type": "error"
		},
		{
			"inputs": [],
			"name": "ApprovalToCurrentOwner",
			"type": "error"
		},
		{
			"inputs": [],
			"name": "ApproveToCaller",
			"type": "error"
		},
		{
			"inputs": [],
			"name": "BalanceQueryForZeroAddress",
			"type": "error"
		},
		{
			"inputs": [],
			"name": "MintToZeroAddress",
			"type": "error"
		},
		{
			"inputs": [],
			"name": "MintZeroQuantity",
			"type": "error"
		},
		{
			"inputs": [],
			"name": "OwnerQueryForNonexistentToken",
			"type": "error"
		},
		{
			"inputs": [],
			"name": "TransferCallerNotOwnerNorApproved",
			"type": "error"
		},
		{
			"inputs": [],
			"name": "TransferFromIncorrectOwner",
			"type": "error"
		},
		{
			"inputs": [],
			"name": "TransferToNonERC721ReceiverImplementer",
			"type": "error"
		},
		{
			"inputs": [],
			"name": "TransferToZeroAddress",
			"type": "error"
		},
		{
			"anonymous": false,
			"inputs": [
				{
					"indexed": true,
					"internalType": "address",
					"name": "owner",
					"type": "address"
				},
				{
					"indexed": true,
					"internalType": "address",
					"name": "approved",
					"type": "address"
				},
				{
					"indexed": true,
					"internalType": "uint256",
					"name": "tokenId",
					"type": "uint256"
				}
			],
			"name": "Approval",
			"type": "event"
		},
		{
			"anonymous": false,
			"inputs": [
				{
					"indexed": true,
					"internalType": "address",
					"name": "owner",
					"type": "address"
				},
				{
					"indexed": true,
					"internalType": "address",
					"name": "operator",
					"type": "address"
				},
				{
					"indexed": false,
					"internalType": "bool",
					"name": "approved",
					"type": "bool"
				}
			],
			"name": "ApprovalForAll",
			"type": "event"
		},
		{
			"anonymous": false,
			"inputs": [
				{
					"indexed": true,
					"internalType": "address",
					"name": "from",
					"type": "address"
				},
				{
					"indexed": true,
					"internalType": "address",
					"name": "to",
					"type": "address"
				},
				{
					"indexed": true,
					"internalType": "uint256",
					"name": "tokenId",
					"type": "uint256"
				}
			],
			"name": "Transfer",
			"type": "event"
		},
		{
			"inputs": [],
			"name": "MAX_PUBLIC_MINT",
			"outputs": [
				{
					"internalType": "uint256",
					"name": "",
					"type": "uint256"
				}
			],
			"stateMutability": "view",
			"type": "function"
		},
		{
			"inputs": [],
			"name": "MAX_SUPPLY",
			"outputs": [
				{
					"internalType": "uint256",
					"name": "",
					"type": "uint256"
				}
			],
			"stateMutability": "view",
			"type": "function"
		},
		{
			"inputs": [],
			"name": "MAX_WHITELIST_MINT",
			"outputs": [
				{
					"internalType": "uint256",
					"name": "",
					"type": "uint256"
				}
			],
			"stateMutability": "view",
			"type": "function"
		},
		{
			"inputs": [],
			"name": "PUBLIC_SALE_PRICE",
			"outputs": [
				{
					"internalType": "uint256",
					"name": "",
					"type": "uint256"
				}
			],
			"stateMutability": "view",
			"type": "function"
		},
		{
			"inputs": [],
			"name": "WHITELIST_SALE_PRICE",
			"outputs": [
				{
					"internalType": "uint256",
					"name": "",
					"type": "uint256"
				}
			],
			"stateMutability": "view",
			"type": "function"
		},
		{
			"inputs": [
				{
					"internalType": "address",
					"name": "to",
					"type": "address"
				},
				{
					"internalType": "uint256",
					"name": "tokenId",
					"type": "uint256"
				}
			],
			"name": "approve",
			"outputs": [],
			"stateMutability": "nonpayable",
			"type": "function"
		},
		{
			"inputs": [
				{
					"internalType": "address",
					"name": "owner",
					"type": "address"
				}
			],
			"name": "balanceOf",
			"outputs": [
				{
					"internalType": "uint256",
					"name": "",
					"type": "uint256"
				}
			],
			"stateMutability": "view",
			"type": "function"
		},
		{
			"inputs": [],
			"name": "baseTokenUri",
			"outputs": [
				{
					"internalType": "string",
					"name": "",
					"type": "string"
				}
			],
			"stateMutability": "view",
			"type": "function"
		},
		{
			"inputs": [
				{
					"internalType": "uint256",
					"name": "tokenId",
					"type": "uint256"
				}
			],
			"name": "getApproved",
			"outputs": [
				{
					"internalType": "address",
					"name": "",
					"type": "address"
				}
			],
			"stateMutability": "view",
			"type": "function"
		},
		{
			"inputs": [],
			"name": "getMerkleRoot",
			"outputs": [
				{
					"internalType": "bytes32",
					"name": "",
					"type": "bytes32"
				}
			],
			"stateMutability": "view",
			"type": "function"
		},
		{
			"inputs": [
				{
					"internalType": "address",
					"name": "owner",
					"type": "address"
				},
				{
					"internalType": "address",
					"name": "operator",
					"type": "address"
				}
			],
			"name": "isApprovedForAll",
			"outputs": [
				{
					"internalType": "bool",
					"name": "",
					"type": "bool"
				}
			],
			"stateMutability": "view",
			"type": "function"
		},
		{
			"inputs": [],
			"name": "isRevealed",
			"outputs": [
				{
					"internalType": "bool",
					"name": "",
					"type": "bool"
				}
			],
			"stateMutability": "view",
			"type": "function"
		},
		{
			"inputs": [
				{
					"internalType": "uint256",
					"name": "_quantity",
					"type": "uint256"
				}
			],
			"name": "mint",
			"outputs": [],
			"stateMutability": "payable",
			"type": "function"
		},
		{
			"inputs": [],
			"name": "name",
			"outputs": [
				{
					"internalType": "string",
					"name": "",
					"type": "string"
				}
			],
			"stateMutability": "view",
			"type": "function"
		},
		{
			"inputs": [],
			"name": "owner",
			"outputs": [
				{
					"internalType": "address",
					"name": "",
					"type": "address"
				}
			],
			"stateMutability": "view",
			"type": "function"
		},
		{
			"inputs": [
				{
					"internalType": "uint256",
					"name": "tokenId",
					"type": "uint256"
				}
			],
			"name": "ownerOf",
			"outputs": [
				{
					"internalType": "address",
					"name": "",
					"type": "address"
				}
			],
			"stateMutability": "view",
			"type": "function"
		},
		{
			"inputs": [],
			"name": "pause",
			"outputs": [
				{
					"internalType": "bool",
					"name": "",
					"type": "bool"
				}
			],
			"stateMutability": "view",
			"type": "function"
		},
		{
			"inputs": [],
			"name": "placeholderTokenUri",
			"outputs": [
				{
					"internalType": "string",
					"name": "",
					"type": "string"
				}
			],
			"stateMutability": "view",
			"type": "function"
		},
		{
			"inputs": [],
			"name": "publicSale",
			"outputs": [
				{
					"internalType": "bool",
					"name": "",
					"type": "bool"
				}
			],
			"stateMutability": "view",
			"type": "function"
		},
		{
			"inputs": [
				{
					"internalType": "address",
					"name": "from",
					"type": "address"
				},
				{
					"internalType": "address",
					"name": "to",
					"type": "address"
				},
				{
					"internalType": "uint256",
					"name": "tokenId",
					"type": "uint256"
				}
			],
			"name": "safeTransferFrom",
			"outputs": [],
			"stateMutability": "nonpayable",
			"type": "function"
		},
		{
			"inputs": [
				{
					"internalType": "address",
					"name": "from",
					"type": "address"
				},
				{
					"internalType": "address",
					"name": "to",
					"type": "address"
				},
				{
					"internalType": "uint256",
					"name": "tokenId",
					"type": "uint256"
				},
				{
					"internalType": "bytes",
					"name": "_data",
					"type": "bytes"
				}
			],
			"name": "safeTransferFrom",
			"outputs": [],
			"stateMutability": "nonpayable",
			"type": "function"
		},
		{
			"inputs": [
				{
					"internalType": "address",
					"name": "operator",
					"type": "address"
				},
				{
					"internalType": "bool",
					"name": "approved",
					"type": "bool"
				}
			],
			"name": "setApprovalForAll",
			"outputs": [],
			"stateMutability": "nonpayable",
			"type": "function"
		},
		{
			"inputs": [
				{
					"internalType": "bytes32",
					"name": "_merkleRoot",
					"type": "bytes32"
				}
			],
			"name": "setMerkleRoot",
			"outputs": [],
			"stateMutability": "nonpayable",
			"type": "function"
		},
		{
			"inputs": [
				{
					"internalType": "string",
					"name": "_placeholderTokenUri",
					"type": "string"
				}
			],
			"name": "setPlaceHolderUri",
			"outputs": [],
			"stateMutability": "nonpayable",
			"type": "function"
		},
		{
			"inputs": [
				{
					"internalType": "string",
					"name": "_baseTokenUri",
					"type": "string"
				}
			],
			"name": "setTokenUri",
			"outputs": [],
			"stateMutability": "nonpayable",
			"type": "function"
		},
		{
			"inputs": [
				{
					"internalType": "bytes4",
					"name": "interfaceId",
					"type": "bytes4"
				}
			],
			"name": "supportsInterface",
			"outputs": [
				{
					"internalType": "bool",
					"name": "",
					"type": "bool"
				}
			],
			"stateMutability": "view",
			"type": "function"
		},
		{
			"inputs": [],
			"name": "symbol",
			"outputs": [
				{
					"internalType": "string",
					"name": "",
					"type": "string"
				}
			],
			"stateMutability": "view",
			"type": "function"
		},
		{
			"inputs": [],
			"name": "teamMint",
			"outputs": [],
			"stateMutability": "nonpayable",
			"type": "function"
		},
		{
			"inputs": [],
			"name": "teamMinted",
			"outputs": [
				{
					"internalType": "bool",
					"name": "",
					"type": "bool"
				}
			],
			"stateMutability": "view",
			"type": "function"
		},
		{
			"inputs": [],
			"name": "togglePause",
			"outputs": [],
			"stateMutability": "nonpayable",
			"type": "function"
		},
		{
			"inputs": [],
			"name": "togglePublicSale",
			"outputs": [],
			"stateMutability": "nonpayable",
			"type": "function"
		},
		{
			"inputs": [],
			"name": "toggleReveal",
			"outputs": [],
			"stateMutability": "nonpayable",
			"type": "function"
		},
		{
			"inputs": [],
			"name": "toggleWhiteListSale",
			"outputs": [],
			"stateMutability": "nonpayable",
			"type": "function"
		},
		{
			"inputs": [
				{
					"internalType": "uint256",
					"name": "tokenId",
					"type": "uint256"
				}
			],
			"name": "tokenURI",
			"outputs": [
				{
					"internalType": "string",
					"name": "",
					"type": "string"
				}
			],
			"stateMutability": "view",
			"type": "function"
		},
		{
			"inputs": [
				{
					"internalType": "address",
					"name": "",
					"type": "address"
				}
			],
			"name": "totalPublicMint",
			"outputs": [
				{
					"internalType": "uint256",
					"name": "",
					"type": "uint256"
				}
			],
			"stateMutability": "view",
			"type": "function"
		},
		{
			"inputs": [],
			"name": "totalSupply",
			"outputs": [
				{
					"internalType": "uint256",
					"name": "",
					"type": "uint256"
				}
			],
			"stateMutability": "view",
			"type": "function"
		},
		{
			"inputs": [
				{
					"internalType": "address",
					"name": "",
					"type": "address"
				}
			],
			"name": "totalWhitelistMint",
			"outputs": [
				{
					"internalType": "uint256",
					"name": "",
					"type": "uint256"
				}
			],
			"stateMutability": "view",
			"type": "function"
		},
		{
			"inputs": [
				{
					"internalType": "address",
					"name": "from",
					"type": "address"
				},
				{
					"internalType": "address",
					"name": "to",
					"type": "address"
				},
				{
					"internalType": "uint256",
					"name": "tokenId",
					"type": "uint256"
				}
			],
			"name": "transferFrom",
			"outputs": [],
			"stateMutability": "nonpayable",
			"type": "function"
		},
		{
			"inputs": [
				{
					"internalType": "address",
					"name": "_to",
					"type": "address"
				}
			],
			"name": "transferOwner",
			"outputs": [],
			"stateMutability": "nonpayable",
			"type": "function"
		},
		{
			"inputs": [],
			"name": "whiteListSale",
			"outputs": [
				{
					"internalType": "bool",
					"name": "",
					"type": "bool"
				}
			],
			"stateMutability": "view",
			"type": "function"
		},
		{
			"inputs": [
				{
					"internalType": "bytes32[]",
					"name": "_merkleProof",
					"type": "bytes32[]"
				},
				{
					"internalType": "uint256",
					"name": "_quantity",
					"type": "uint256"
				}
			],
			"name": "whitelistMint",
			"outputs": [],
			"stateMutability": "payable",
			"type": "function"
		},
		{
			"inputs": [],
			"name": "withdraw",
			"outputs": [],
			"stateMutability": "nonpayable",
			"type": "function"
		}
	],
	"bytecode": "0x608060405267013fbe85edc9000060095566f8b0a10e470000600a556000600d60006101000a81548160ff0219169083151502179055506000600d60016101000a81548160ff0219169083151502179055506000600d60026101000a81548160ff0219169083151502179055506001600d60036101000a81548160ff0219169083151502179055503480156200009457600080fd5b506040518060400160405280600581526020017f536b7948690000000000000000000000000000000000000000000000000000008152506040518060400160405280600581526020017f536b79486900000000000000000000000000000000000000000000000000000081525081600290805190602001906200011992919062000197565b5080600390805190602001906200013292919062000197565b50620001436200019260201b60201c565b600081905550505033600860006101000a81548173ffffffffffffffffffffffffffffffffffffffff021916908373ffffffffffffffffffffffffffffffffffffffff160217905550620002ac565b600090565b828054620001a59062000247565b90600052602060002090601f016020900481019282620001c9576000855562000215565b82601f10620001e457805160ff191683800117855562000215565b8280016001018555821562000215579182015b8281111562000214578251825591602001919060010190620001f7565b5b50905062000224919062000228565b5090565b5b808211156200024357600081600090555060010162000229565b5090565b600060028204905060018216806200026057607f821691505b602082108114156200027757620002766200027d565b5b50919050565b7f4e487b7100000000000000000000000000000000000000000000000000000000600052602260045260246000fd5b61464d80620002bc6000396000f3fe6080604052600436106102515760003560e01c806365f1309711610139578063a22cb465116100b6578063c08dfd3c1161007a578063c08dfd3c1461084e578063c4ae316814610879578063c87b56dd14610890578063e222c7f9146108cd578063e8b5498d146108e4578063e985e9c51461090f57610251565b8063a22cb46514610791578063b0962c53146107ba578063b88d4fde146107e3578063ba7a86b81461080c578063bc912e1a1461082357610251565b806386a173ee116100fd57806386a173ee146106dd5780638bb64a8c146107085780638da5cb5b1461071f57806395d89b411461074a578063a0712d681461077557610251565b806365f13097146105f657806370a08231146106215780637a0101a21461065e5780637cb64759146106895780638456cb59146106b257610251565b80632904e6d9116101d2578063495906571161019657806349590657146104f85780634cf5f7a4146105235780634fb2e45d1461054e57806354214f69146105775780635b8ad429146105a25780636352211e146105b957610251565b80632904e6d91461044657806332cb6b0c1461046257806333bc1c5c1461048d5780633ccfd60b146104b857806342842e0e146104cf57610251565b8063081812fc11610219578063081812fc1461034f578063095ea7b31461038c57806318160ddd146103b55780631c16521c146103e057806323b872dd1461041d57610251565b806301ffc9a7146102565780630345e3cb146102935780630675b7c6146102d057806306fdde03146102f957806307e89ec014610324575b600080fd5b34801561026257600080fd5b5061027d600480360381019061027891906136a2565b61094c565b60405161028a9190613b91565b60405180910390f35b34801561029f57600080fd5b506102ba60048036038101906102b5919061347e565b610a2e565b6040516102c79190613da9565b60405180910390f35b3480156102dc57600080fd5b506102f760048036038101906102f291906136f4565b610a46565b005b34801561030557600080fd5b5061030e610af0565b60405161031b9190613bc7565b60405180910390f35b34801561033057600080fd5b50610339610b82565b6040516103469190613da9565b60405180910390f35b34801561035b57600080fd5b5061037660048036038101906103719190613735565b610b88565b6040516103839190613b2a565b60405180910390f35b34801561039857600080fd5b506103b360048036038101906103ae91906135e9565b610c04565b005b3480156103c157600080fd5b506103ca610d0f565b6040516103d79190613da9565b60405180910390f35b3480156103ec57600080fd5b506104076004803603810190610402919061347e565b610d26565b6040516104149190613da9565b60405180910390f35b34801561042957600080fd5b50610444600480360381019061043f91906134e3565b610d3e565b005b610460600480360381019061045b9190613625565b610d4e565b005b34801561046e57600080fd5b5061047761101c565b6040516104849190613da9565b60405180910390f35b34801561049957600080fd5b506104a2611022565b6040516104af9190613b91565b60405180910390f35b3480156104c457600080fd5b506104cd611035565b005b3480156104db57600080fd5b506104f660048036038101906104f191906134e3565b61110e565b005b34801561050457600080fd5b5061050d61112e565b60405161051a9190613bac565b60405180910390f35b34801561052f57600080fd5b50610538611138565b6040516105459190613bc7565b60405180910390f35b34801561055a57600080fd5b506105756004803603810190610570919061347e565b6111c6565b005b34801561058357600080fd5b5061058c61129a565b6040516105999190613b91565b60405180910390f35b3480156105ae57600080fd5b506105b76112ad565b005b3480156105c557600080fd5b506105e060048036038101906105db9190613735565b611369565b6040516105ed9190613b2a565b60405180910390f35b34801561060257600080fd5b5061060b61137f565b6040516106189190613da9565b60405180910390f35b34801561062d57600080fd5b506106486004803603810190610643919061347e565b611385565b6040516106559190613da9565b60405180910390f35b34801561066a57600080fd5b50610673611455565b6040516106809190613bc7565b60405180910390f35b34801561069557600080fd5b506106b060048036038101906106ab9190613679565b6114e3565b005b3480156106be57600080fd5b506106c761157d565b6040516106d49190613b91565b60405180910390f35b3480156106e957600080fd5b506106f2611590565b6040516106ff9190613b91565b60405180910390f35b34801561071457600080fd5b5061071d6115a3565b005b34801561072b57600080fd5b5061073461165f565b6040516107419190613b2a565b60405180910390f35b34801561075657600080fd5b5061075f611685565b60405161076c9190613bc7565b60405180910390f35b61078f600480360381019061078a9190613735565b611717565b005b34801561079d57600080fd5b506107b860048036038101906107b391906135ad565b6119c3565b005b3480156107c657600080fd5b506107e160048036038101906107dc91906136f4565b611b3b565b005b3480156107ef57600080fd5b5061080a60048036038101906108059190613532565b611be5565b005b34801561081857600080fd5b50610821611c61565b005b34801561082f57600080fd5b50610838611d69565b6040516108459190613da9565b60405180910390f35b34801561085a57600080fd5b50610863611d6f565b6040516108709190613da9565b60405180910390f35b34801561088557600080fd5b5061088e611d74565b005b34801561089c57600080fd5b506108b760048036038101906108b29190613735565b611e30565b6040516108c49190613bc7565b60405180910390f35b3480156108d957600080fd5b506108e2611f92565b005b3480156108f057600080fd5b506108f961204e565b6040516109069190613b91565b60405180910390f35b34801561091b57600080fd5b50610936600480360381019061093191906134a7565b612061565b6040516109439190613b91565b60405180910390f35b60007f80ac58cd000000000000000000000000000000000000000000000000000000007bffffffffffffffffffffffffffffffffffffffffffffffffffffffff1916827bffffffffffffffffffffffffffffffffffffffffffffffffffffffff19161480610a1757507f5b5e139f000000000000000000000000000000000000000000000000000000007bffffffffffffffffffffffffffffffffffffffffffffffffffffffff1916827bffffffffffffffffffffffffffffffffffffffffffffffffffffffff1916145b80610a275750610a26826120f5565b5b9050919050565b60106020528060005260406000206000915090505481565b3373ffffffffffffffffffffffffffffffffffffffff16600860009054906101000a900473ffffffffffffffffffffffffffffffffffffffff1673ffffffffffffffffffffffffffffffffffffffff1614610ad6576040517f08c379a0000000000000000000000000000000000000000000000000000000008152600401610acd90613c49565b60405180910390fd5b80600b9080519060200190610aec9291906131b4565b5050565b606060028054610aff906140a4565b80601f0160208091040260200160405190810160405280929190818152602001828054610b2b906140a4565b8015610b785780601f10610b4d57610100808354040283529160200191610b78565b820191906000526020600020905b815481529060010190602001808311610b5b57829003601f168201915b5050505050905090565b60095481565b6000610b938261215f565b610bc9576040517fcf4700e400000000000000000000000000000000000000000000000000000000815260040160405180910390fd5b6006600083815260200190815260200160002060009054906101000a900473ffffffffffffffffffffffffffffffffffffffff169050919050565b6000610c0f82611369565b90508073ffffffffffffffffffffffffffffffffffffffff168373ffffffffffffffffffffffffffffffffffffffff161415610c77576040517f943f7b8c00000000000000000000000000000000000000000000000000000000815260040160405180910390fd5b8073ffffffffffffffffffffffffffffffffffffffff16610c966121ad565b73ffffffffffffffffffffffffffffffffffffffff1614158015610cc85750610cc681610cc16121ad565b612061565b155b15610cff576040517fcfb3b94200000000000000000000000000000000000000000000000000000000815260040160405180910390fd5b610d0a8383836121b5565b505050565b6000610d19612267565b6001546000540303905090565b600f6020528060005260406000206000915090505481565b610d4983838361226c565b505050565b3373ffffffffffffffffffffffffffffffffffffffff163273ffffffffffffffffffffffffffffffffffffffff1614610dbc576040517f08c379a0000000000000000000000000000000000000000000000000000000008152600401610db390613d89565b60405180910390fd5b600d60029054906101000a900460ff16610e0b576040517f08c379a0000000000000000000000000000000000000000000000000000000008152600401610e0290613c69565b60405180910390fd5b61271081610e17610d0f565b610e219190613ecf565b1115610e62576040517f08c379a0000000000000000000000000000000000000000000000000000000008152600401610e5990613ce9565b60405180910390fd5b600381601060003373ffffffffffffffffffffffffffffffffffffffff1673ffffffffffffffffffffffffffffffffffffffff16815260200190815260200160002054610eaf9190613ecf565b1115610ef0576040517f08c379a0000000000000000000000000000000000000000000000000000000008152600401610ee790613d29565b60405180910390fd5b80600a54610efe9190613f56565b341015610f40576040517f08c379a0000000000000000000000000000000000000000000000000000000008152600401610f3790613d09565b60405180910390fd5b600033604051602001610f539190613ae0565b604051602081830303815290604052805190602001209050610f7883600e5483612722565b610fb7576040517f08c379a0000000000000000000000000000000000000000000000000000000008152600401610fae90613d69565b60405180910390fd5b81601060003373ffffffffffffffffffffffffffffffffffffffff1673ffffffffffffffffffffffffffffffffffffffff16815260200190815260200160002060008282546110069190613ecf565b925050819055506110173383612739565b505050565b61271081565b600d60019054906101000a900460ff1681565b3373ffffffffffffffffffffffffffffffffffffffff16600860009054906101000a900473ffffffffffffffffffffffffffffffffffffffff1673ffffffffffffffffffffffffffffffffffffffff16146110c5576040517f08c379a00000000000000000000000000000000000000000000000000000000081526004016110bc90613c49565b60405180910390fd5b3373ffffffffffffffffffffffffffffffffffffffff166108fc479081150290604051600060405180830381858888f1935050505015801561110b573d6000803e3d6000fd5b50565b61112983838360405180602001604052806000815250611be5565b505050565b6000600e54905090565b600c8054611145906140a4565b80601f0160208091040260200160405190810160405280929190818152602001828054611171906140a4565b80156111be5780601f10611193576101008083540402835291602001916111be565b820191906000526020600020905b8154815290600101906020018083116111a157829003601f168201915b505050505081565b3373ffffffffffffffffffffffffffffffffffffffff16600860009054906101000a900473ffffffffffffffffffffffffffffffffffffffff1673ffffffffffffffffffffffffffffffffffffffff1614611256576040517f08c379a000000000000000000000000000000000000000000000000000000000815260040161124d90613c49565b60405180910390fd5b80600860006101000a81548173ffffffffffffffffffffffffffffffffffffffff021916908373ffffffffffffffffffffffffffffffffffffffff16021790555050565b600d60009054906101000a900460ff1681565b3373ffffffffffffffffffffffffffffffffffffffff16600860009054906101000a900473ffffffffffffffffffffffffffffffffffffffff1673ffffffffffffffffffffffffffffffffffffffff161461133d576040517f08c379a000000000000000000000000000000000000000000000000000000000815260040161133490613c49565b60405180910390fd5b600d60009054906101000a900460ff1615600d60006101000a81548160ff021916908315150217905550565b600061137482612757565b600001519050919050565b61013781565b60008073ffffffffffffffffffffffffffffffffffffffff168273ffffffffffffffffffffffffffffffffffffffff1614156113ed576040517f8f4eb60400000000000000000000000000000000000000000000000000000000815260040160405180910390fd5b600560008373ffffffffffffffffffffffffffffffffffffffff1673ffffffffffffffffffffffffffffffffffffffff16815260200190815260200160002060000160009054906101000a900467ffffffffffffffff1667ffffffffffffffff169050919050565b600b8054611462906140a4565b80601f016020809104026020016040519081016040528092919081815260200182805461148e906140a4565b80156114db5780601f106114b0576101008083540402835291602001916114db565b820191906000526020600020905b8154815290600101906020018083116114be57829003601f168201915b505050505081565b3373ffffffffffffffffffffffffffffffffffffffff16600860009054906101000a900473ffffffffffffffffffffffffffffffffffffffff1673ffffffffffffffffffffffffffffffffffffffff1614611573576040517f08c379a000000000000000000000000000000000000000000000000000000000815260040161156a90613c49565b60405180910390fd5b80600e8190555050565b600d60039054906101000a900460ff1681565b600d60029054906101000a900460ff1681565b3373ffffffffffffffffffffffffffffffffffffffff16600860009054906101000a900473ffffffffffffffffffffffffffffffffffffffff1673ffffffffffffffffffffffffffffffffffffffff1614611633576040517f08c379a000000000000000000000000000000000000000000000000000000000815260040161162a90613c49565b60405180910390fd5b600d60029054906101000a900460ff1615600d60026101000a81548160ff021916908315150217905550565b600860009054906101000a900473ffffffffffffffffffffffffffffffffffffffff1681565b606060038054611694906140a4565b80601f01602080910402602001604051908101604052809291908181526020018280546116c0906140a4565b801561170d5780601f106116e25761010080835404028352916020019161170d565b820191906000526020600020905b8154815290600101906020018083116116f057829003601f168201915b5050505050905090565b3373ffffffffffffffffffffffffffffffffffffffff163273ffffffffffffffffffffffffffffffffffffffff1614611785576040517f08c379a000000000000000000000000000000000000000000000000000000000815260040161177c90613d89565b60405180910390fd5b60001515600d60039054906101000a900460ff161515146117db576040517f08c379a00000000000000000000000000000000000000000000000000000000081526004016117d290613d49565b60405180910390fd5b600d60019054906101000a900460ff1661182a576040517f08c379a000000000000000000000000000000000000000000000000000000000815260040161182190613be9565b60405180910390fd5b61271081611836610d0f565b6118409190613ecf565b1115611881576040517f08c379a000000000000000000000000000000000000000000000000000000000815260040161187890613cc9565b60405180910390fd5b61013781600f60003373ffffffffffffffffffffffffffffffffffffffff1673ffffffffffffffffffffffffffffffffffffffff168152602001908152602001600020546118cf9190613ecf565b1115611910576040517f08c379a000000000000000000000000000000000000000000000000000000000815260040161190790613c29565b60405180910390fd5b8060095461191e9190613f56565b341015611960576040517f08c379a000000000000000000000000000000000000000000000000000000000815260040161195790613c09565b60405180910390fd5b80600f60003373ffffffffffffffffffffffffffffffffffffffff1673ffffffffffffffffffffffffffffffffffffffff16815260200190815260200160002060008282546119af9190613ecf565b925050819055506119c03382612739565b50565b6119cb6121ad565b73ffffffffffffffffffffffffffffffffffffffff168273ffffffffffffffffffffffffffffffffffffffff161415611a30576040517fb06307db00000000000000000000000000000000000000000000000000000000815260040160405180910390fd5b8060076000611a3d6121ad565b73ffffffffffffffffffffffffffffffffffffffff1673ffffffffffffffffffffffffffffffffffffffff16815260200190815260200160002060008473ffffffffffffffffffffffffffffffffffffffff1673ffffffffffffffffffffffffffffffffffffffff16815260200190815260200160002060006101000a81548160ff0219169083151502179055508173ffffffffffffffffffffffffffffffffffffffff16611aea6121ad565b73ffffffffffffffffffffffffffffffffffffffff167f17307eab39ab6107e8899845ad3d59bd9653f200f220920489ca2b5937696c3183604051611b2f9190613b91565b60405180910390a35050565b3373ffffffffffffffffffffffffffffffffffffffff16600860009054906101000a900473ffffffffffffffffffffffffffffffffffffffff1673ffffffffffffffffffffffffffffffffffffffff1614611bcb576040517f08c379a0000000000000000000000000000000000000000000000000000000008152600401611bc290613c49565b60405180910390fd5b80600c9080519060200190611be19291906131b4565b5050565b611bf084848461226c565b611c0f8373ffffffffffffffffffffffffffffffffffffffff166129e6565b8015611c245750611c2284848484612a09565b155b15611c5b576040517fd1a57ed600000000000000000000000000000000000000000000000000000000815260040160405180910390fd5b50505050565b3373ffffffffffffffffffffffffffffffffffffffff16600860009054906101000a900473ffffffffffffffffffffffffffffffffffffffff1673ffffffffffffffffffffffffffffffffffffffff1614611cf1576040517f08c379a0000000000000000000000000000000000000000000000000000000008152600401611ce890613c49565b60405180910390fd5b600d60049054906101000a900460ff1615611d41576040517f08c379a0000000000000000000000000000000000000000000000000000000008152600401611d3890613c89565b60405180910390fd5b6001600d60046101000a81548160ff021916908315150217905550611d673360c8612739565b565b600a5481565b600381565b3373ffffffffffffffffffffffffffffffffffffffff16600860009054906101000a900473ffffffffffffffffffffffffffffffffffffffff1673ffffffffffffffffffffffffffffffffffffffff1614611e04576040517f08c379a0000000000000000000000000000000000000000000000000000000008152600401611dfb90613c49565b60405180910390fd5b600d60039054906101000a900460ff1615600d60036101000a81548160ff021916908315150217905550565b6060611e3b8261215f565b611e7a576040517f08c379a0000000000000000000000000000000000000000000000000000000008152600401611e7190613ca9565b60405180910390fd5b6000600183611e899190613ecf565b9050600d60009054906101000a900460ff16611f3257600c8054611eac906140a4565b80601f0160208091040260200160405190810160405280929190818152602001828054611ed8906140a4565b8015611f255780601f10611efa57610100808354040283529160200191611f25565b820191906000526020600020905b815481529060010190602001808311611f0857829003601f168201915b5050505050915050611f8d565b6000600b8054611f41906140a4565b905011611f5d5760405180602001604052806000815250611f89565b600b611f6882612b69565b604051602001611f79929190613afb565b6040516020818303038152906040525b9150505b919050565b3373ffffffffffffffffffffffffffffffffffffffff16600860009054906101000a900473ffffffffffffffffffffffffffffffffffffffff1673ffffffffffffffffffffffffffffffffffffffff1614612022576040517f08c379a000000000000000000000000000000000000000000000000000000000815260040161201990613c49565b60405180910390fd5b600d60019054906101000a900460ff1615600d60016101000a81548160ff021916908315150217905550565b600d60049054906101000a900460ff1681565b6000600760008473ffffffffffffffffffffffffffffffffffffffff1673ffffffffffffffffffffffffffffffffffffffff16815260200190815260200160002060008373ffffffffffffffffffffffffffffffffffffffff1673ffffffffffffffffffffffffffffffffffffffff16815260200190815260200160002060009054906101000a900460ff16905092915050565b60007f01ffc9a7000000000000000000000000000000000000000000000000000000007bffffffffffffffffffffffffffffffffffffffffffffffffffffffff1916827bffffffffffffffffffffffffffffffffffffffffffffffffffffffff1916149050919050565b60008161216a612267565b11158015612179575060005482105b80156121a6575060046000838152602001908152602001600020600001601c9054906101000a900460ff16155b9050919050565b600033905090565b826006600084815260200190815260200160002060006101000a81548173ffffffffffffffffffffffffffffffffffffffff021916908373ffffffffffffffffffffffffffffffffffffffff160217905550818373ffffffffffffffffffffffffffffffffffffffff168273ffffffffffffffffffffffffffffffffffffffff167f8c5be1e5ebec7d5bd14f71427d1e84f3dd0314c0f7b2291e5b200ac8c7c3b92560405160405180910390a4505050565b600090565b600061227782612757565b90508373ffffffffffffffffffffffffffffffffffffffff16816000015173ffffffffffffffffffffffffffffffffffffffff16146122e2576040517fa114810000000000000000000000000000000000000000000000000000000000815260040160405180910390fd5b60008473ffffffffffffffffffffffffffffffffffffffff166123036121ad565b73ffffffffffffffffffffffffffffffffffffffff16148061233257506123318561232c6121ad565b612061565b5b8061237757506123406121ad565b73ffffffffffffffffffffffffffffffffffffffff1661235f84610b88565b73ffffffffffffffffffffffffffffffffffffffff16145b9050806123b0576040517f59c896be00000000000000000000000000000000000000000000000000000000815260040160405180910390fd5b600073ffffffffffffffffffffffffffffffffffffffff168473ffffffffffffffffffffffffffffffffffffffff161415612417576040517fea553b3400000000000000000000000000000000000000000000000000000000815260040160405180910390fd5b6124248585856001612d16565b612430600084876121b5565b6001600560008773ffffffffffffffffffffffffffffffffffffffff1673ffffffffffffffffffffffffffffffffffffffff16815260200190815260200160002060000160008282829054906101000a900467ffffffffffffffff160392506101000a81548167ffffffffffffffff021916908367ffffffffffffffff1602179055506001600560008673ffffffffffffffffffffffffffffffffffffffff1673ffffffffffffffffffffffffffffffffffffffff16815260200190815260200160002060000160008282829054906101000a900467ffffffffffffffff160192506101000a81548167ffffffffffffffff021916908367ffffffffffffffff1602179055506000600460008581526020019081526020016000209050848160000160006101000a81548173ffffffffffffffffffffffffffffffffffffffff021916908373ffffffffffffffffffffffffffffffffffffffff160217905550428160000160146101000a81548167ffffffffffffffff021916908367ffffffffffffffff16021790555060006001850190506000600460008381526020019081526020016000209050600073ffffffffffffffffffffffffffffffffffffffff168160000160009054906101000a900473ffffffffffffffffffffffffffffffffffffffff1673ffffffffffffffffffffffffffffffffffffffff1614156126b05760005482146126af57878160000160006101000a81548173ffffffffffffffffffffffffffffffffffffffff021916908373ffffffffffffffffffffffffffffffffffffffff16021790555084602001518160000160146101000a81548167ffffffffffffffff021916908367ffffffffffffffff1602179055505b5b505050828473ffffffffffffffffffffffffffffffffffffffff168673ffffffffffffffffffffffffffffffffffffffff167fddf252ad1be2c89b69c2b068fc378daa952ba7f163c4a11628f55a4df523b3ef60405160405180910390a461271b8585856001612d1c565b5050505050565b60008261272f8584612d22565b1490509392505050565b612753828260405180602001604052806000815250612dbd565b5050565b61275f61323a565b60008290508061276d612267565b1115801561277c575060005481105b156129af576000600460008381526020019081526020016000206040518060600160405290816000820160009054906101000a900473ffffffffffffffffffffffffffffffffffffffff1673ffffffffffffffffffffffffffffffffffffffff1673ffffffffffffffffffffffffffffffffffffffff1681526020016000820160149054906101000a900467ffffffffffffffff1667ffffffffffffffff1667ffffffffffffffff16815260200160008201601c9054906101000a900460ff161515151581525050905080604001516129ad57600073ffffffffffffffffffffffffffffffffffffffff16816000015173ffffffffffffffffffffffffffffffffffffffff16146128915780925050506129e1565b5b6001156129ac57818060019003925050600460008381526020019081526020016000206040518060600160405290816000820160009054906101000a900473ffffffffffffffffffffffffffffffffffffffff1673ffffffffffffffffffffffffffffffffffffffff1673ffffffffffffffffffffffffffffffffffffffff1681526020016000820160149054906101000a900467ffffffffffffffff1667ffffffffffffffff1667ffffffffffffffff16815260200160008201601c9054906101000a900460ff1615151515815250509050600073ffffffffffffffffffffffffffffffffffffffff16816000015173ffffffffffffffffffffffffffffffffffffffff16146129a75780925050506129e1565b612892565b5b505b6040517fdf2d9b4200000000000000000000000000000000000000000000000000000000815260040160405180910390fd5b919050565b6000808273ffffffffffffffffffffffffffffffffffffffff163b119050919050565b60008373ffffffffffffffffffffffffffffffffffffffff1663150b7a02612a2f6121ad565b8786866040518563ffffffff1660e01b8152600401612a519493929190613b45565b602060405180830381600087803b158015612a6b57600080fd5b505af1925050508015612a9c57506040513d601f19601f82011682018060405250810190612a9991906136cb565b60015b612b16573d8060008114612acc576040519150601f19603f3d011682016040523d82523d6000602084013e612ad1565b606091505b50600081511415612b0e576040517fd1a57ed600000000000000000000000000000000000000000000000000000000815260040160405180910390fd5b805181602001fd5b63150b7a0260e01b7bffffffffffffffffffffffffffffffffffffffffffffffffffffffff1916817bffffffffffffffffffffffffffffffffffffffffffffffffffffffff191614915050949350505050565b60606000821415612bb1576040518060400160405280600181526020017f30000000000000000000000000000000000000000000000000000000000000008152509050612d11565b600082905060005b60008214612be3578080612bcc90614107565b915050600a82612bdc9190613f25565b9150612bb9565b60008167ffffffffffffffff811115612c25577f4e487b7100000000000000000000000000000000000000000000000000000000600052604160045260246000fd5b6040519080825280601f01601f191660200182016040528015612c575781602001600182028036833780820191505090505b5090505b60008514612d0a57600182612c709190613fb0565b9150600a85612c7f9190614174565b6030612c8b9190613ecf565b60f81b818381518110612cc7577f4e487b7100000000000000000000000000000000000000000000000000000000600052603260045260246000fd5b60200101907effffffffffffffffffffffffffffffffffffffffffffffffffffffffffffff1916908160001a905350600a85612d039190613f25565b9450612c5b565b8093505050505b919050565b50505050565b50505050565b60008082905060005b8451811015612db2576000858281518110612d6f577f4e487b7100000000000000000000000000000000000000000000000000000000600052603260045260246000fd5b60200260200101519050808311612d9157612d8a8382612dcf565b9250612d9e565b612d9b8184612dcf565b92505b508080612daa90614107565b915050612d2b565b508091505092915050565b612dca8383836001612de6565b505050565b600082600052816020526040600020905092915050565b600080549050600073ffffffffffffffffffffffffffffffffffffffff168573ffffffffffffffffffffffffffffffffffffffff161415612e53576040517f2e07630000000000000000000000000000000000000000000000000000000000815260040160405180910390fd5b6000841415612e8e576040517fb562e8dd00000000000000000000000000000000000000000000000000000000815260040160405180910390fd5b612e9b6000868387612d16565b83600560008773ffffffffffffffffffffffffffffffffffffffff1673ffffffffffffffffffffffffffffffffffffffff16815260200190815260200160002060000160008282829054906101000a900467ffffffffffffffff160192506101000a81548167ffffffffffffffff021916908367ffffffffffffffff16021790555083600560008773ffffffffffffffffffffffffffffffffffffffff1673ffffffffffffffffffffffffffffffffffffffff16815260200190815260200160002060000160088282829054906101000a900467ffffffffffffffff160192506101000a81548167ffffffffffffffff021916908367ffffffffffffffff160217905550846004600083815260200190815260200160002060000160006101000a81548173ffffffffffffffffffffffffffffffffffffffff021916908373ffffffffffffffffffffffffffffffffffffffff160217905550426004600083815260200190815260200160002060000160146101000a81548167ffffffffffffffff021916908367ffffffffffffffff16021790555060008190506000858201905083801561306557506130648773ffffffffffffffffffffffffffffffffffffffff166129e6565b5b1561312b575b818773ffffffffffffffffffffffffffffffffffffffff16600073ffffffffffffffffffffffffffffffffffffffff167fddf252ad1be2c89b69c2b068fc378daa952ba7f163c4a11628f55a4df523b3ef60405160405180910390a46130da6000888480600101955088612a09565b613110576040517fd1a57ed600000000000000000000000000000000000000000000000000000000815260040160405180910390fd5b8082141561306b57826000541461312657600080fd5b613197565b5b818060010192508773ffffffffffffffffffffffffffffffffffffffff16600073ffffffffffffffffffffffffffffffffffffffff167fddf252ad1be2c89b69c2b068fc378daa952ba7f163c4a11628f55a4df523b3ef60405160405180910390a48082141561312c575b8160008190555050506131ad6000868387612d1c565b5050505050565b8280546131c0906140a4565b90600052602060002090601f0160209004810192826131e25760008555613229565b82601f106131fb57805160ff1916838001178555613229565b82800160010185558215613229579182015b8281111561322857825182559160200191906001019061320d565b5b509050613236919061327d565b5090565b6040518060600160405280600073ffffffffffffffffffffffffffffffffffffffff168152602001600067ffffffffffffffff1681526020016000151581525090565b5b8082111561329657600081600090555060010161327e565b5090565b60006132ad6132a884613de9565b613dc4565b905080838252602082019050828560208602820111156132cc57600080fd5b60005b858110156132fc57816132e288826133d6565b8452602084019350602083019250506001810190506132cf565b5050509392505050565b600061331961331484613e15565b613dc4565b90508281526020810184848401111561333157600080fd5b61333c848285614062565b509392505050565b600061335761335284613e46565b613dc4565b90508281526020810184848401111561336f57600080fd5b61337a848285614062565b509392505050565b600081359050613391816145a4565b92915050565b600082601f8301126133a857600080fd5b81356133b884826020860161329a565b91505092915050565b6000813590506133d0816145bb565b92915050565b6000813590506133e5816145d2565b92915050565b6000813590506133fa816145e9565b92915050565b60008151905061340f816145e9565b92915050565b600082601f83011261342657600080fd5b8135613436848260208601613306565b91505092915050565b600082601f83011261345057600080fd5b8135613460848260208601613344565b91505092915050565b60008135905061347881614600565b92915050565b60006020828403121561349057600080fd5b600061349e84828501613382565b91505092915050565b600080604083850312156134ba57600080fd5b60006134c885828601613382565b92505060206134d985828601613382565b9150509250929050565b6000806000606084860312156134f857600080fd5b600061350686828701613382565b935050602061351786828701613382565b925050604061352886828701613469565b9150509250925092565b6000806000806080858703121561354857600080fd5b600061355687828801613382565b945050602061356787828801613382565b935050604061357887828801613469565b925050606085013567ffffffffffffffff81111561359557600080fd5b6135a187828801613415565b91505092959194509250565b600080604083850312156135c057600080fd5b60006135ce85828601613382565b92505060206135df858286016133c1565b9150509250929050565b600080604083850312156135fc57600080fd5b600061360a85828601613382565b925050602061361b85828601613469565b9150509250929050565b6000806040838503121561363857600080fd5b600083013567ffffffffffffffff81111561365257600080fd5b61365e85828601613397565b925050602061366f85828601613469565b9150509250929050565b60006020828403121561368b57600080fd5b6000613699848285016133d6565b91505092915050565b6000602082840312156136b457600080fd5b60006136c2848285016133eb565b91505092915050565b6000602082840312156136dd57600080fd5b60006136eb84828501613400565b91505092915050565b60006020828403121561370657600080fd5b600082013567ffffffffffffffff81111561372057600080fd5b61372c8482850161343f565b91505092915050565b60006020828403121561374757600080fd5b600061375584828501613469565b91505092915050565b61376781613fe4565b82525050565b61377e61377982613fe4565b614150565b82525050565b61378d81613ff6565b82525050565b61379c81614002565b82525050565b60006137ad82613e8c565b6137b78185613ea2565b93506137c7818560208601614071565b6137d081614261565b840191505092915050565b60006137e682613e97565b6137f08185613eb3565b9350613800818560208601614071565b61380981614261565b840191505092915050565b600061381f82613e97565b6138298185613ec4565b9350613839818560208601614071565b80840191505092915050565b60008154613852816140a4565b61385c8186613ec4565b945060018216600081146138775760018114613888576138bb565b60ff198316865281860193506138bb565b61389185613e77565b60005b838110156138b357815481890152600182019150602081019050613894565b838801955050505b50505092915050565b60006138d1601883613eb3565b91506138dc8261427f565b602082019050919050565b60006138f4600f83613eb3565b91506138ff826142a8565b602082019050919050565b6000613917602083613eb3565b9150613922826142d1565b602082019050919050565b600061393a601583613eb3565b9150613945826142fa565b602082019050919050565b600061395d601c83613eb3565b915061396882614323565b602082019050919050565b6000613980601c83613eb3565b915061398b8261434c565b602082019050919050565b60006139a3600583613ec4565b91506139ae82614375565b600582019050919050565b60006139c6602f83613eb3565b91506139d18261439e565b604082019050919050565b60006139e9601a83613eb3565b91506139f4826143ed565b602082019050919050565b6000613a0c602683613eb3565b9150613a1782614416565b604082019050919050565b6000613a2f602383613eb3565b9150613a3a82614465565b604082019050919050565b6000613a52602f83613eb3565b9150613a5d826144b4565b604082019050919050565b6000613a75600e83613eb3565b9150613a8082614503565b602082019050919050565b6000613a98602083613eb3565b9150613aa38261452c565b602082019050919050565b6000613abb602783613eb3565b9150613ac682614555565b604082019050919050565b613ada81614058565b82525050565b6000613aec828461376d565b60148201915081905092915050565b6000613b078285613845565b9150613b138284613814565b9150613b1e82613996565b91508190509392505050565b6000602082019050613b3f600083018461375e565b92915050565b6000608082019050613b5a600083018761375e565b613b67602083018661375e565b613b746040830185613ad1565b8181036060830152613b8681846137a2565b905095945050505050565b6000602082019050613ba66000830184613784565b92915050565b6000602082019050613bc16000830184613793565b92915050565b60006020820190508181036000830152613be181846137db565b905092915050565b60006020820190508181036000830152613c02816138c4565b9050919050565b60006020820190508181036000830152613c22816138e7565b9050919050565b60006020820190508181036000830152613c428161390a565b9050919050565b60006020820190508181036000830152613c628161392d565b9050919050565b60006020820190508181036000830152613c8281613950565b9050919050565b60006020820190508181036000830152613ca281613973565b9050919050565b60006020820190508181036000830152613cc2816139b9565b9050919050565b60006020820190508181036000830152613ce2816139dc565b9050919050565b60006020820190508181036000830152613d02816139ff565b9050919050565b60006020820190508181036000830152613d2281613a22565b9050919050565b60006020820190508181036000830152613d4281613a45565b9050919050565b60006020820190508181036000830152613d6281613a68565b9050919050565b60006020820190508181036000830152613d8281613a8b565b9050919050565b60006020820190508181036000830152613da281613aae565b9050919050565b6000602082019050613dbe6000830184613ad1565b92915050565b6000613dce613ddf565b9050613dda82826140d6565b919050565b6000604051905090565b600067ffffffffffffffff821115613e0457613e03614232565b5b602082029050602081019050919050565b600067ffffffffffffffff821115613e3057613e2f614232565b5b613e3982614261565b9050602081019050919050565b600067ffffffffffffffff821115613e6157613e60614232565b5b613e6a82614261565b9050602081019050919050565b60008190508160005260206000209050919050565b600081519050919050565b600081519050919050565b600082825260208201905092915050565b600082825260208201905092915050565b600081905092915050565b6000613eda82614058565b9150613ee583614058565b9250827fffffffffffffffffffffffffffffffffffffffffffffffffffffffffffffffff03821115613f1a57613f196141a5565b5b828201905092915050565b6000613f3082614058565b9150613f3b83614058565b925082613f4b57613f4a6141d4565b5b828204905092915050565b6000613f6182614058565b9150613f6c83614058565b9250817fffffffffffffffffffffffffffffffffffffffffffffffffffffffffffffffff0483118215151615613fa557613fa46141a5565b5b828202905092915050565b6000613fbb82614058565b9150613fc683614058565b925082821015613fd957613fd86141a5565b5b828203905092915050565b6000613fef82614038565b9050919050565b60008115159050919050565b6000819050919050565b60007fffffffff0000000000000000000000000000000000000000000000000000000082169050919050565b600073ffffffffffffffffffffffffffffffffffffffff82169050919050565b6000819050919050565b82818337600083830152505050565b60005b8381101561408f578082015181840152602081019050614074565b8381111561409e576000848401525b50505050565b600060028204905060018216806140bc57607f821691505b602082108114156140d0576140cf614203565b5b50919050565b6140df82614261565b810181811067ffffffffffffffff821117156140fe576140fd614232565b5b80604052505050565b600061411282614058565b91507fffffffffffffffffffffffffffffffffffffffffffffffffffffffffffffffff821415614145576141446141a5565b5b600182019050919050565b600061415b82614162565b9050919050565b600061416d82614272565b9050919050565b600061417f82614058565b915061418a83614058565b92508261419a576141996141d4565b5b828206905092915050565b7f4e487b7100000000000000000000000000000000000000000000000000000000600052601160045260246000fd5b7f4e487b7100000000000000000000000000000000000000000000000000000000600052601260045260246000fd5b7f4e487b7100000000000000000000000000000000000000000000000000000000600052602260045260246000fd5b7f4e487b7100000000000000000000000000000000000000000000000000000000600052604160045260246000fd5b6000601f19601f8301169050919050565b60008160601b9050919050565b7f536b794869203a3a204e6f7420596574204163746976652e0000000000000000600082015250565b7f536b794869203a3a2042656c6f77200000000000000000000000000000000000600082015250565b7f536b794869203a3a20416c7265616479206d696e74656420332074696d657321600082015250565b7f596f7520617265206e6f7420746865206f776e65720000000000000000000000600082015250565b7f536b794869203a3a204d696e74696e67206973206f6e20506175736500000000600082015250565b7f536b794869203a3a205465616d20616c7265616479206d696e74656400000000600082015250565b7f2e6a736f6e000000000000000000000000000000000000000000000000000000600082015250565b7f4552433732314d657461646174613a2055524920717565727920666f72206e6f60008201527f6e6578697374656e7420746f6b656e0000000000000000000000000000000000602082015250565b7f536b794869203a3a204265796f6e64204d617820537570706c79000000000000600082015250565b7f536b794869203a3a2043616e6e6f74206d696e74206265796f6e64206d61782060008201527f737570706c790000000000000000000000000000000000000000000000000000602082015250565b7f536b794869203a3a205061796d656e742069732062656c6f772074686520707260008201527f6963650000000000000000000000000000000000000000000000000000000000602082015250565b7f536b794869203a3a2043616e6e6f74206d696e74206265796f6e64207768697460008201527f656c697374206d6178206d696e74210000000000000000000000000000000000602082015250565b7f53616c6520697320706175736564000000000000000000000000000000000000600082015250565b7f536b794869203a3a20596f7520617265206e6f742077686974656c6973746564600082015250565b7f536b794869203a3a2043616e6e6f742062652063616c6c65642062792061206360008201527f6f6e747261637400000000000000000000000000000000000000000000000000602082015250565b6145ad81613fe4565b81146145b857600080fd5b50565b6145c481613ff6565b81146145cf57600080fd5b50565b6145db81614002565b81146145e657600080fd5b50565b6145f28161400c565b81146145fd57600080fd5b50565b61460981614058565b811461461457600080fd5b5056fea26469706673582212204750a2cf9817975e289e4948ce7ed97c32983c134b0e800e5cc1657a1070cc1e64736f6c63430008040033",
	"linkReferences": {},
	"deployedLinkReferences": {}
}